{
  "_format": "hh-sol-artifact-1",
  "contractName": "DIDRegistry",
  "sourceName": "contracts/DIDRegistry.sol",
  "abi": [
    {
      "inputs": [],
      "stateMutability": "nonpayable",
      "type": "constructor"
    },
    {
      "anonymous": false,
      "inputs": [
        {
          "indexed": true,
          "internalType": "string",
          "name": "did",
          "type": "string"
        }
      ],
      "name": "DIDDeactivated",
      "type": "event"
    },
    {
      "anonymous": false,
      "inputs": [
        {
          "indexed": true,
          "internalType": "string",
          "name": "did",
          "type": "string"
        },
        {
          "indexed": true,
          "internalType": "address",
          "name": "owner",
          "type": "address"
        }
      ],
      "name": "DIDRegistered",
      "type": "event"
    },
    {
      "anonymous": false,
      "inputs": [
        {
          "indexed": true,
          "internalType": "string",
          "name": "did",
          "type": "string"
        }
      ],
      "name": "DIDUpdated",
      "type": "event"
    },
    {
      "anonymous": false,
      "inputs": [
        {
          "indexed": true,
          "internalType": "address",
          "name": "newOwner",
          "type": "address"
        }
      ],
      "name": "OwnershipTransferInitiated",
      "type": "event"
    },
    {
      "anonymous": false,
      "inputs": [
        {
          "indexed": true,
          "internalType": "address",
          "name": "prev",
          "type": "address"
        },
        {
          "indexed": true,
          "internalType": "address",
          "name": "next",
          "type": "address"
        }
      ],
      "name": "OwnershipTransferred",
      "type": "event"
    },
    {
      "inputs": [],
      "name": "acceptOwnership",
      "outputs": [],
      "stateMutability": "nonpayable",
      "type": "function"
    },
    {
      "inputs": [
        {
          "internalType": "string",
          "name": "did",
          "type": "string"
        }
      ],
      "name": "deactivateDID",
      "outputs": [],
      "stateMutability": "nonpayable",
      "type": "function"
    },
    {
      "inputs": [
        {
          "internalType": "string",
          "name": "did",
          "type": "string"
        }
      ],
      "name": "getOwner",
      "outputs": [
        {
          "internalType": "address",
          "name": "",
          "type": "address"
        }
      ],
      "stateMutability": "view",
      "type": "function"
    },
    {
      "inputs": [
        {
          "internalType": "string",
          "name": "did",
          "type": "string"
        }
      ],
      "name": "getPublicKey",
      "outputs": [
        {
          "internalType": "string",
          "name": "",
          "type": "string"
        }
      ],
      "stateMutability": "view",
      "type": "function"
    },
    {
      "inputs": [
        {
          "internalType": "address",
          "name": "newOwner",
          "type": "address"
        }
      ],
      "name": "initiateOwnershipTransfer",
      "outputs": [],
      "stateMutability": "nonpayable",
      "type": "function"
    },
    {
      "inputs": [
        {
          "internalType": "string",
          "name": "did",
          "type": "string"
        }
      ],
      "name": "isDeactivated",
      "outputs": [
        {
          "internalType": "bool",
          "name": "",
          "type": "bool"
        }
      ],
      "stateMutability": "view",
      "type": "function"
    },
    {
      "inputs": [],
      "name": "owner",
      "outputs": [
        {
          "internalType": "address",
          "name": "",
          "type": "address"
        }
      ],
      "stateMutability": "view",
      "type": "function"
    },
    {
      "inputs": [],
      "name": "pendingOwner",
      "outputs": [
        {
          "internalType": "address",
          "name": "",
          "type": "address"
        }
      ],
      "stateMutability": "view",
      "type": "function"
    },
    {
      "inputs": [
        {
          "internalType": "string",
          "name": "did",
          "type": "string"
        },
        {
          "internalType": "string",
          "name": "pubKey",
          "type": "string"
        }
      ],
      "name": "registerDID",
      "outputs": [],
      "stateMutability": "nonpayable",
      "type": "function"
    },
    {
      "inputs": [
        {
          "internalType": "string",
          "name": "did",
          "type": "string"
        },
        {
          "internalType": "string",
          "name": "newPubKey",
          "type": "string"
        }
      ],
      "name": "updatePublicKey",
      "outputs": [],
      "stateMutability": "nonpayable",
      "type": "function"
    }
  ],
  "bytecode": "0x608060405234801561001057600080fd5b50600080546001600160a01b03191633179055610d9f806100326000396000f3fe608060405234801561001057600080fd5b506004361061009e5760003560e01c80638da5cb5b116100665780638da5cb5b14610116578063bff9082114610129578063c0b6f56114610149578063e00642361461015c578063e30c39781461017f57600080fd5b80633b253b23146100a35780634aaf4a12146100b85780635d1c7985146100e857806379ba5097146100fb5780637e5c39e914610103575b600080fd5b6100b66100b1366004610aca565b610192565b005b6100cb6100c6366004610aca565b610305565b6040516001600160a01b0390911681526020015b60405180910390f35b6100b66100f6366004610b0c565b6103c1565b6100b661056f565b6100b6610111366004610b0c565b610621565b6000546100cb906001600160a01b031681565b61013c610137366004610aca565b6107cf565b6040516100df9190610b78565b6100b6610157366004610bc7565b610970565b61016f61016a366004610aca565b610a52565b60405190151581526020016100df565b6001546100cb906001600160a01b031681565b8181336001600160a01b0316600283836040516101b0929190610bf7565b908152604051908190036020019020546001600160a01b03161461021b5760405162461bcd60e51b815260206004820152601a60248201527f44494452656769737472793a206e6f7420444944206f776e657200000000000060448201526064015b60405180910390fd5b6004828260405161022d929190610bf7565b9081526040519081900360200190205460ff161561028d5760405162461bcd60e51b815260206004820152601f60248201527f44494452656769737472793a20444944206973206465616374697661746564006044820152606401610212565b6001600485856040516102a1929190610bf7565b908152604051908190036020018120805492151560ff19909316929092179091556102cf9085908590610bf7565b604051908190038120907f4360f12f602ccecefb32480e5314d0d3f57d38db8f52c76d8fdf4c39596c1c2890600090a250505050565b6000828260006001600160a01b031660028383604051610326929190610bf7565b908152604051908190036020019020546001600160a01b03160361038c5760405162461bcd60e51b815260206004820152601a60248201527f44494452656769737472793a20444944206e6f7420666f756e640000000000006044820152606401610212565b6002858560405161039e929190610bf7565b908152604051908190036020019020546001600160a01b03169250505092915050565b8383336001600160a01b0316600283836040516103df929190610bf7565b908152604051908190036020019020546001600160a01b0316146104455760405162461bcd60e51b815260206004820152601a60248201527f44494452656769737472793a206e6f7420444944206f776e65720000000000006044820152606401610212565b60048282604051610457929190610bf7565b9081526040519081900360200190205460ff16156104b75760405162461bcd60e51b815260206004820152601f60248201527f44494452656769737472793a20444944206973206465616374697661746564006044820152606401610212565b826104f75760405162461bcd60e51b815260206004820152601060248201526f456d707479207075626c6963206b657960801b6044820152606401610212565b83836003888860405161050b929190610bf7565b90815260200160405180910390209182610526929190610ca8565b508585604051610537929190610bf7565b604051908190038120907f7e7500a71b0209575a3b4858a2a662e94b0cad314ecb249f3526e9b2f86a014690600090a2505050505050565b6001546001600160a01b031633146105bd5760405162461bcd60e51b81526020600482015260116024820152702737ba103832b73234b7339037bbb732b960791b6044820152606401610212565b600154600080546040516001600160a01b0393841693909116917f8be0079c531659141344cd1fd0a4f28419497f9722a3daafe3b4186f6b6457e091a360018054600080546001600160a01b03199081166001600160a01b03841617909155169055565b60006001600160a01b03166002858560405161063e929190610bf7565b908152604051908190036020019020546001600160a01b0316146106995760405162461bcd60e51b815260206004820152601260248201527144494420616c72656164792065786973747360701b6044820152606401610212565b826106d25760405162461bcd60e51b8152602060048201526009602482015268115b5c1d1e4811125160ba1b6044820152606401610212565b806107125760405162461bcd60e51b815260206004820152601060248201526f456d707479207075626c6963206b657960801b6044820152606401610212565b3360028585604051610725929190610bf7565b908152602001604051809103902060006101000a8154816001600160a01b0302191690836001600160a01b0316021790555081816003868660405161076b929190610bf7565b90815260200160405180910390209182610786929190610ca8565b5060405133906107999086908690610bf7565b604051908190038120907fd59e4d670f6e249831d6f8ce560f47ced54b3f4203e2d0050dc495fd6b919dd290600090a350505050565b6060828260006001600160a01b0316600283836040516107f0929190610bf7565b908152604051908190036020019020546001600160a01b0316036108565760405162461bcd60e51b815260206004820152601a60248201527f44494452656769737472793a20444944206e6f7420666f756e640000000000006044820152606401610212565b60048585604051610868929190610bf7565b9081526040519081900360200190205460ff16156108bd5760405162461bcd60e51b8152602060048201526012602482015271111251081a5cc819195858dd1a5d985d195960721b6044820152606401610212565b600385856040516108cf929190610bf7565b908152602001604051809103902080546108e890610c1d565b80601f016020809104026020016040519081016040528092919081815260200182805461091490610c1d565b80156109615780601f1061093657610100808354040283529160200191610961565b820191906000526020600020905b81548152906001019060200180831161094457829003601f168201915b50505050509250505092915050565b6000546001600160a01b031633146109c35760405162461bcd60e51b81526020600482015260166024820152752224a22932b3b4b9ba393c9d103737ba1037bbb732b960511b6044820152606401610212565b6001600160a01b038116610a085760405162461bcd60e51b815260206004820152600c60248201526b5a65726f206164647265737360a01b6044820152606401610212565b600180546001600160a01b0319166001600160a01b0383169081179091556040517f20f5afdf40bf7b43c89031a5d4369a30b159e512d164aa46124bcb706b4a1caf90600090a250565b600060048383604051610a66929190610bf7565b9081526040519081900360200190205460ff16905092915050565b60008083601f840112610a9357600080fd5b50813567ffffffffffffffff811115610aab57600080fd5b602083019150836020828501011115610ac357600080fd5b9250929050565b60008060208385031215610add57600080fd5b823567ffffffffffffffff811115610af457600080fd5b610b0085828601610a81565b90969095509350505050565b60008060008060408587031215610b2257600080fd5b843567ffffffffffffffff80821115610b3a57600080fd5b610b4688838901610a81565b90965094506020870135915080821115610b5f57600080fd5b50610b6c87828801610a81565b95989497509550505050565b60006020808352835180602085015260005b81811015610ba657858101830151858201604001528201610b8a565b506000604082860101526040601f19601f8301168501019250505092915050565b600060208284031215610bd957600080fd5b81356001600160a01b0381168114610bf057600080fd5b9392505050565b8183823760009101908152919050565b634e487b7160e01b600052604160045260246000fd5b600181811c90821680610c3157607f821691505b602082108103610c5157634e487b7160e01b600052602260045260246000fd5b50919050565b601f821115610ca3576000816000526020600020601f850160051c81016020861015610c805750805b601f850160051c820191505b81811015610c9f57828155600101610c8c565b5050505b505050565b67ffffffffffffffff831115610cc057610cc0610c07565b610cd483610cce8354610c1d565b83610c57565b6000601f841160018114610d085760008515610cf05750838201355b600019600387901b1c1916600186901b178355610d62565b600083815260209020601f19861690835b82811015610d395786850135825560209485019460019092019101610d19565b5086821015610d565760001960f88860031b161c19848701351681555b505060018560011b0183555b505050505056fea26469706673582212203163ef1b8b7522237266c348171185e165a81aaf0c480c9782806da5ca04c36f64736f6c63430008180033",
  "linkReferences": {},
  "deployedLinkReferences": {}
}