{
  "_format": "hh-sol-artifact-1",
  "contractName": "RBACManager",
  "sourceName": "contracts/RBACManager.sol",
  "abi": [
    {
      "inputs": [],
      "stateMutability": "nonpayable",
      "type": "constructor"
    },
    {
      "anonymous": false,
      "inputs": [
        {
          "indexed": true,
          "internalType": "address",
          "name": "user",
          "type": "address"
        },
        {
          "indexed": false,
          "internalType": "string",
          "name": "role",
          "type": "string"
        }
      ],
      "name": "RoleAssigned",
      "type": "event"
    },
    {
      "inputs": [
        {
          "internalType": "address",
          "name": "user",
          "type": "address"
        },
        {
          "internalType": "string",
          "name": "role",
          "type": "string"
        }
      ],
      "name": "assignRole",
      "outputs": [],
      "stateMutability": "nonpayable",
      "type": "function"
    },
    {
      "inputs": [
        {
          "internalType": "address",
          "name": "user",
          "type": "address"
        }
      ],
      "name": "getRole",
      "outputs": [
        {
          "internalType": "string",
          "name": "",
          "type": "string"
        }
      ],
      "stateMutability": "view",
      "type": "function"
    },
    {
      "inputs": [],
      "name": "owner",
      "outputs": [
        {
          "internalType": "address",
          "name": "",
          "type": "address"
        }
      ],
      "stateMutability": "view",
      "type": "function"
    }
  ],
  "bytecode": "0x608060405234801561001057600080fd5b50600080546001600160a01b031916331790556104e8806100326000396000f3fe608060405234801561001057600080fd5b50600436106100415760003560e01c806344276733146100465780638da5cb5b1461006f578063b7dfcbee1461009a575b600080fd5b61005961005436600461022d565b6100af565b604051610066919061024f565b60405180910390f35b600054610082906001600160a01b031681565b6040516001600160a01b039091168152602001610066565b6100ad6100a836600461029e565b61015b565b005b6001600160a01b03811660009081526001602052604090208054606091906100d690610321565b80601f016020809104026020016040519081016040528092919081815260200182805461010290610321565b801561014f5780601f106101245761010080835404028352916020019161014f565b820191906000526020600020905b81548152906001019060200180831161013257829003601f168201915b50505050509050919050565b6000546001600160a01b031633146101a55760405162461bcd60e51b81526020600482015260096024820152682737ba1037bbb732b960b91b604482015260640160405180910390fd5b6001600160a01b03831660009081526001602052604090206101c88284836103c2565b50826001600160a01b03167f3565795c2fb8842c21347d277937778bbcfe788b5b4f790fc5e408786cbe9c908383604051610204929190610483565b60405180910390a2505050565b80356001600160a01b038116811461022857600080fd5b919050565b60006020828403121561023f57600080fd5b61024882610211565b9392505050565b60006020808352835180602085015260005b8181101561027d57858101830151858201604001528201610261565b506000604082860101526040601f19601f8301168501019250505092915050565b6000806000604084860312156102b357600080fd5b6102bc84610211565b9250602084013567ffffffffffffffff808211156102d957600080fd5b818601915086601f8301126102ed57600080fd5b8135818111156102fc57600080fd5b87602082850101111561030e57600080fd5b6020830194508093505050509250925092565b600181811c9082168061033557607f821691505b60208210810361035557634e487b7160e01b600052602260045260246000fd5b50919050565b634e487b7160e01b600052604160045260246000fd5b601f8211156103bd576000816000526020600020601f850160051c8101602086101561039a5750805b601f850160051c820191505b818110156103b9578281556001016103a6565b5050505b505050565b67ffffffffffffffff8311156103da576103da61035b565b6103ee836103e88354610321565b83610371565b6000601f841160018114610422576000851561040a5750838201355b600019600387901b1c1916600186901b17835561047c565b600083815260209020601f19861690835b828110156104535786850135825560209485019460019092019101610433565b50868210156104705760001960f88860031b161c19848701351681555b505060018560011b0183555b5050505050565b60208152816020820152818360408301376000818301604090810191909152601f909201601f1916010191905056fea264697066735822122020a705dfbfce2c4b82d5ebbd4a6529306d5f5106752082a1648a2b842c99854e64736f6c63430008180033",
  "linkReferences": {},
  "deployedLinkReferences": {}
}